:040000000C948500D7
:100004000C94B2000C9400000C9400000C940000BA
:100014000C9400000C9400000C9400000C9400005C
:100024000C9400000C9400000C9400000C9400004C
:100034000C9400000C9400000C9400000C9400003C
:100044000C9400000C9400000C9400000C9400002C
:100054001027E80364000A000100001000011000EA
:1000640001000000636F696E733A0054616B652090
:10007400596F7572204974656D0043686F7365200C
:10008400313A340057656C636F6D655E5F5E007076
:1000940072696365203A006974656D206E756D62DE
:1000A4006572006974656D20707269636500646FC0
:1000B4006E65000080C00100040066000700600156
:1000C40068000F0067016F000A0076017E000B00D4
:1000D400800188000A008B017E00080095019300CE
:1000E4000C009D019B000B00A901A7000500B401B1
:1000F400B2000C00B9019B000A00C5017E00020099
:10010400CF01B8000000F894EE27ECBBF1E0FBBF90
:10011400EBBFE5BF8DE0A2E0BB27ED938A95E9F73D
:1001240080E094E0A0E6ED930197E9F7EAEBF0E0D4
:1001340085919591009761F0A591B59105901590E1
:10014400BF01F00105900D920197E1F7FB01F0CF9B
:10015400EFE5EDBFE4E0EEBFC0E6D1E00C940C01A6
:100164000A921A92FA926A937A938A939A93AA9326
:10017400BA93EA93FA93EFB7EA935AD1A0E6B1E0BF
:10018400AED14394A42DA05D5DD15414A9F550D1F2
:10019400A7E6B1E06AD1A8EEB3E0C0D1E72DF0E064
:1001A400E130A0E0FA0731F4C09AA8EEB3E0B6D18A
:1001B400C0981DC0E230A0E0FA0731F4C19AA8EE5D
:1001C400B3E0ACD1C19813C0E330A0E0FA0731F436
:1001D400C29AA8EEB3E0A2D1C29809C0E430A0E06C
:1001E400FA0729F4C39AA8EEB3E098D1C39844243B
:1001F4001FD1A6E7B1E039D1E991EFBFF991E991B7
:10020400B991A9919991899179916991F9901990EC
:1002140009901895E7E0E4BBE8EFE5BBEFEFE7BB37
:100224007894E0E4EBBFE5B7E260E5BFE5B7EE7FC5
:10023400E5BFE1E0EA93A2E0B4D0E2E0EA93A3E010
:10024400B0D0E3E0EA93A2E0ACD0E4E0EA93A3E028
:10025400A8D0A0E119D1A0E8B1E007D1A4EFB1E0A2
:100264005DD1E6D0ABE8B1E000D13DD07E2EE0E038
:10027400E71518F4E5E07E1608F00EC0A72D9CD013
:100284005E2ED6D0A5E9B1E02AD1A52DA05DDAD0A5
:10029400A8EEB3E043D125C0EBE0E715F1F423D099
:1002A400EA30D1F0C5D0ADE9B1E0DFD01CD07E2E6C
:1002B400BFD0A9EAB1E0D9D07A9215D0AE2F71D0CF
:1002C400B7D0A4EBB1E0D1D0ACEBB2E027D1B0D041
:1002D400A9EBB1E0CAD0E3CF04C0AAD0A5ECB1E049
:1002E400C4D0C3CFFFCFA898A99AAA9AE3B3E63F94
:1002F40029F49B9BFECFE1E0089514C0EE3E29F45F
:100304009C9BFECFE4E008950DC0EE3D29F49D9B37
:10031400FECFE7E0089506C0EE3B21F49E9BFECF9E
:10032400EAE00895A89AA998AA9AE3B3E53F29F4C4
:100334009B9BFECFE2E0089514C0ED3E29F49C9B04
:10034400FECFE5E008950DC0ED3D29F49D9BFECF61
:10035400E8E0089506C0ED3B21F49E9BFECFE0E06B
:100364000895A89AA99AAA98E3B3E33F29F49B9B1A
:10037400FECFE3E0089514C0EB3E29F49C9BFECF2E
:10038400E6E008950DC0EB3D29F49D9BFECFE9E026
:10039400089506C0EB3B21F49E9BFECFEBE008954D
:1003A400A2CFA2D0E199FECF1DBBE02FF0E0FFBBAE
:1003B400EEBBE29AE19A38C01A931A2FE199FECF64
:1003C400E12FF0E0FFBBEEBBE09AEDB386C01A93D9
:1003D4001A2FEBB3EF70AE2FE12FE07FEA2BEBBBCC
:1003E4008DE08A95F1F7DA9A8DE08A95F1F7DA983B
:1003F4008DE08A95F1F771C0AA93A881E8DFE881BE
:10040400E295E883A881E3DF85E88A95F1F72196F0
:1004140008956AD0E12FF0E0E153FE4FE081E00F50
:10042400AE2FEADF602E912E19810881239608955C
:10043400A2E05FD0ACE0E0DFA1E05BD0E0E09E2E84
:100444006E2E08951A931A2F1A3011F0681438F08A
:10045400E0E0EA939394A92DDCDF1A30F1F1639480
:10046400D89AA12FC9DFD89838C04ED09D01D901A0
:100474002F5F3F4FEC911E2FE03019F0A12FE2DFE8
:10048400F6CF47D0249608951A931A2FEAB3E06F53
:10049400EABBD29AD09AD19ADA98D898D998812E70
:1004A400E12FE058E093D101E12FE054E093D20131
:1004B400A4E1B0E033D021D020D01FD0A0E287DF68
:1004C40088EC90E00197F1F7A8E296DFA4E094DFCE
:1004D400A5E892DFA6E090DFABDF19910895C5DFB0
:1004E400E0E0EA93A1E095CF1A930A931A2F0A81C8
:1004F400089582DFA3E0B0E011C0A0E368DF88ECD8
:1005040090E00197F1F708953A932A931A930A9386
:1005140008953B812A81198108810895109639F044
:10052400A89580ED97E00197F1F71197C9F7089521
:00000001FF
